{
  "contractName": "Employee",
  "abi": [
    {
      "inputs": [
        {
          "internalType": "address",
          "name": "_admin",
          "type": "address"
        },
        {
          "internalType": "address",
          "name": "_employee_address",
          "type": "address"
        },
        {
          "internalType": "string",
          "name": "_name",
          "type": "string"
        },
        {
          "internalType": "string",
          "name": "_description",
          "type": "string"
        },
        {
          "internalType": "string",
          "name": "_location",
          "type": "string"
        }
      ],
      "payable": false,
      "stateMutability": "nonpayable",
      "type": "constructor"
    },
    {
      "constant": true,
      "inputs": [
        {
          "internalType": "uint256",
          "name": "",
          "type": "uint256"
        }
      ],
      "name": "overallEndorsement",
      "outputs": [
        {
          "internalType": "uint256",
          "name": "",
          "type": "uint256"
        }
      ],
      "payable": false,
      "stateMutability": "view",
      "type": "function"
    },
    {
      "constant": true,
      "inputs": [],
      "name": "getEmployeeInfo",
      "outputs": [
        {
          "internalType": "address",
          "name": "",
          "type": "address"
        },
        {
          "internalType": "string",
          "name": "",
          "type": "string"
        },
        {
          "internalType": "string",
          "name": "",
          "type": "string"
        },
        {
          "internalType": "string",
          "name": "",
          "type": "string"
        },
        {
          "internalType": "uint256",
          "name": "",
          "type": "uint256"
        },
        {
          "internalType": "uint256",
          "name": "",
          "type": "uint256"
        }
      ],
      "payable": false,
      "stateMutability": "view",
      "type": "function"
    },
    {
      "constant": false,
      "inputs": [
        {
          "internalType": "string",
          "name": "_name",
          "type": "string"
        },
        {
          "internalType": "string",
          "name": "_descrip",
          "type": "string"
        },
        {
          "internalType": "string",
          "name": "_location",
          "type": "string"
        }
      ],
      "name": "editInfo",
      "outputs": [],
      "payable": false,
      "stateMutability": "nonpayable",
      "type": "function"
    },
    {
      "constant": false,
      "inputs": [
        {
          "internalType": "string",
          "name": "_name",
          "type": "string"
        },
        {
          "internalType": "string",
          "name": "_experience",
          "type": "string"
        }
      ],
      "name": "addSkill",
      "outputs": [],
      "payable": false,
      "stateMutability": "nonpayable",
      "type": "function"
    },
    {
      "constant": false,
      "inputs": [
        {
          "internalType": "string",
          "name": "_name",
          "type": "string"
        },
        {
          "internalType": "uint256",
          "name": "_overall_percentage",
          "type": "uint256"
        },
        {
          "internalType": "string",
          "name": "_review",
          "type": "string"
        }
      ],
      "name": "endorseSkill",
      "outputs": [],
      "payable": false,
      "stateMutability": "nonpayable",
      "type": "function"
    },
    {
      "constant": true,
      "inputs": [],
      "name": "getSkillCount",
      "outputs": [
        {
          "internalType": "uint256",
          "name": "",
          "type": "uint256"
        }
      ],
      "payable": false,
      "stateMutability": "view",
      "type": "function"
    },
    {
      "constant": true,
      "inputs": [
        {
          "internalType": "uint256",
          "name": "_index",
          "type": "uint256"
        }
      ],
      "name": "getSkillByIndex",
      "outputs": [
        {
          "internalType": "string",
          "name": "",
          "type": "string"
        },
        {
          "internalType": "uint256",
          "name": "",
          "type": "uint256"
        },
        {
          "internalType": "string",
          "name": "",
          "type": "string"
        },
        {
          "internalType": "bool",
          "name": "",
          "type": "bool"
        },
        {
          "internalType": "address",
          "name": "",
          "type": "address"
        },
        {
          "internalType": "string",
          "name": "",
          "type": "string"
        },
        {
          "internalType": "bool",
          "name": "",
          "type": "bool"
        }
      ],
      "payable": false,
      "stateMutability": "view",
      "type": "function"
    },
    {
      "constant": false,
      "inputs": [
        {
          "internalType": "string",
          "name": "_name",
          "type": "string"
        }
      ],
      "name": "deleteSkill",
      "outputs": [],
      "payable": false,
      "stateMutability": "nonpayable",
      "type": "function"
    },
    {
      "constant": false,
      "inputs": [
        {
          "internalType": "string",
          "name": "_name",
          "type": "string"
        },
        {
          "internalType": "address",
          "name": "_organization",
          "type": "address"
        },
        {
          "internalType": "uint256",
          "name": "_score",
          "type": "uint256"
        }
      ],
      "name": "addCertification",
      "outputs": [],
      "payable": false,
      "stateMutability": "nonpayable",
      "type": "function"
    },
    {
      "constant": false,
      "inputs": [
        {
          "internalType": "string",
          "name": "_name",
          "type": "string"
        }
      ],
      "name": "endorseCertification",
      "outputs": [],
      "payable": false,
      "stateMutability": "nonpayable",
      "type": "function"
    },
    {
      "constant": true,
      "inputs": [],
      "name": "getCertificationCount",
      "outputs": [
        {
          "internalType": "uint256",
          "name": "",
          "type": "uint256"
        }
      ],
      "payable": false,
      "stateMutability": "view",
      "type": "function"
    },
    {
      "constant": true,
      "inputs": [
        {
          "internalType": "uint256",
          "name": "_index",
          "type": "uint256"
        }
      ],
      "name": "getCertificationByIndex",
      "outputs": [
        {
          "internalType": "string",
          "name": "",
          "type": "string"
        },
        {
          "internalType": "address",
          "name": "",
          "type": "address"
        },
        {
          "internalType": "uint256",
          "name": "",
          "type": "uint256"
        },
        {
          "internalType": "bool",
          "name": "",
          "type": "bool"
        },
        {
          "internalType": "bool",
          "name": "",
          "type": "bool"
        }
      ],
      "payable": false,
      "stateMutability": "view",
      "type": "function"
    },
    {
      "constant": false,
      "inputs": [
        {
          "internalType": "string",
          "name": "_name",
          "type": "string"
        }
      ],
      "name": "deleteCertification",
      "outputs": [],
      "payable": false,
      "stateMutability": "nonpayable",
      "type": "function"
    },
    {
      "constant": false,
      "inputs": [
        {
          "internalType": "string",
          "name": "_role",
          "type": "string"
        },
        {
          "internalType": "address",
          "name": "_organization",
          "type": "address"
        },
        {
          "internalType": "string",
          "name": "_startdate",
          "type": "string"
        },
        {
          "internalType": "string",
          "name": "_enddate",
          "type": "string"
        },
        {
          "internalType": "string",
          "name": "_description",
          "type": "string"
        }
      ],
      "name": "addWorkExp",
      "outputs": [],
      "payable": false,
      "stateMutability": "nonpayable",
      "type": "function"
    },
    {
      "constant": false,
      "inputs": [],
      "name": "endorseWorkExp",
      "outputs": [],
      "payable": false,
      "stateMutability": "nonpayable",
      "type": "function"
    },
    {
      "constant": true,
      "inputs": [],
      "name": "getWorkExpCount",
      "outputs": [
        {
          "internalType": "uint256",
          "name": "",
          "type": "uint256"
        }
      ],
      "payable": false,
      "stateMutability": "view",
      "type": "function"
    },
    {
      "constant": true,
      "inputs": [
        {
          "internalType": "uint256",
          "name": "_index",
          "type": "uint256"
        }
      ],
      "name": "getWorkExpByIndex",
      "outputs": [
        {
          "internalType": "string",
          "name": "",
          "type": "string"
        },
        {
          "internalType": "address",
          "name": "",
          "type": "address"
        },
        {
          "internalType": "string",
          "name": "",
          "type": "string"
        },
        {
          "internalType": "string",
          "name": "",
          "type": "string"
        },
        {
          "internalType": "bool",
          "name": "",
          "type": "bool"
        },
        {
          "internalType": "string",
          "name": "",
          "type": "string"
        },
        {
          "internalType": "bool",
          "name": "",
          "type": "bool"
        }
      ],
      "payable": false,
      "stateMutability": "view",
      "type": "function"
    },
    {
      "constant": false,
      "inputs": [
        {
          "internalType": "address",
          "name": "org",
          "type": "address"
        }
      ],
      "name": "deleteWorkExp",
      "outputs": [],
      "payable": false,
      "stateMutability": "nonpayable",
      "type": "function"
    },
    {
      "constant": false,
      "inputs": [
        {
          "internalType": "address",
          "name": "_institute",
          "type": "address"
        },
        {
          "internalType": "string",
          "name": "_startdate",
          "type": "string"
        },
        {
          "internalType": "string",
          "name": "_enddate",
          "type": "string"
        },
        {
          "internalType": "string",
          "name": "_description",
          "type": "string"
        }
      ],
      "name": "addEducation",
      "outputs": [],
      "payable": false,
      "stateMutability": "nonpayable",
      "type": "function"
    },
    {
      "constant": false,
      "inputs": [],
      "name": "endorseEducation",
      "outputs": [],
      "payable": false,
      "stateMutability": "nonpayable",
      "type": "function"
    },
    {
      "constant": true,
      "inputs": [],
      "name": "getEducationCount",
      "outputs": [
        {
          "internalType": "uint256",
          "name": "",
          "type": "uint256"
        }
      ],
      "payable": false,
      "stateMutability": "view",
      "type": "function"
    },
    {
      "constant": true,
      "inputs": [
        {
          "internalType": "uint256",
          "name": "_index",
          "type": "uint256"
        }
      ],
      "name": "getEducationByIndex",
      "outputs": [
        {
          "internalType": "address",
          "name": "",
          "type": "address"
        },
        {
          "internalType": "string",
          "name": "",
          "type": "string"
        },
        {
          "internalType": "string",
          "name": "",
          "type": "string"
        },
        {
          "internalType": "bool",
          "name": "",
          "type": "bool"
        },
        {
          "internalType": "string",
          "name": "",
          "type": "string"
        }
      ],
      "payable": false,
      "stateMutability": "view",
      "type": "function"
    }
  ],
  "bytecode": "0x60806040523480156200001157600080fd5b506040516200355c3803806200355c833981810160405260a08110156200003757600080fd5b815160208301516040808501805191519395929483019291846401000000008211156200006357600080fd5b9083019060208201858111156200007957600080fd5b82516401000000008111828201881017156200009457600080fd5b82525081516020918201929091019080838360005b83811015620000c3578181015183820152602001620000a9565b50505050905090810190601f168015620000f15780820380516001836020036101000a031916815260200191505b50604052602001805160405193929190846401000000008211156200011557600080fd5b9083019060208201858111156200012b57600080fd5b82516401000000008111828201881017156200014657600080fd5b82525081516020918201929091019080838360005b83811015620001755781810151838201526020016200015b565b50505050905090810190601f168015620001a35780820380516001836020036101000a031916815260200191505b5060405260200180516040519392919084640100000000821115620001c757600080fd5b908301906020820185811115620001dd57600080fd5b8251640100000000811182820188101715620001f857600080fd5b82525081516020918201929091019080838360005b83811015620002275781810151838201526020016200020d565b50505050905090810190601f168015620002555780820380516001836020036101000a031916815260200191505b506040525050600080546001600160a01b0319166001600160a01b0388161790555082516200028c906006906020860190620002e5565b50600180546001600160a01b0319166001600160a01b0386161790558151620002bd906002906020850190620002e5565b508051620002d3906003906020840190620002e5565b50506000600555506200038a92505050565b828054600181600116156101000203166002900490600052602060002090601f016020900481019282601f106200032857805160ff191683800117855562000358565b8280016001018555821562000358579182015b82811115620003585782518255916020019190600101906200033b565b50620003669291506200036a565b5090565b6200038791905b8082111562000366576000815560010162000371565b90565b6131c2806200039a6000396000f3fe608060405234801561001057600080fd5b50600436106101425760003560e01c8063c07f7d16116100b8578063eda3467c1161007c578063eda3467c14610d21578063f1d9efb214610dc5578063f5e616a614611009578063fc017f2514611011578063fdb10361146111bf578063fee7989e146112f057610142565b8063c07f7d161461077a578063cf6431c614610938578063d57e0ad6146109dc578063d862ae8714610bd2578063e260175114610cfb57610142565b80636212fa021161010a5780636212fa02146103a3578063645f29a8146103ab5780637b1d2d00146105305780637c067d8d146105e257806394fb3da7146105ff578063a3e3bf7d1461060757610142565b806305f53b29146101475780632186879c14610161578063444fc6621461020757806344afd1341461039357806344f034ae1461039b575b600080fd5b61014f6113b0565b60408051918252519081900360200190f35b6102056004803603602081101561017757600080fd5b810190602081018135600160201b81111561019157600080fd5b8201836020820111156101a357600080fd5b803590602001918460018302840111600160201b831117156101c457600080fd5b91908080601f0160208091040260200160405190810160405280939291908181526020018383808284376000920191909152509295506113b7945050505050565b005b6102246004803603602081101561021d57600080fd5b50356114c7565b60408051602080820189905286151560608301526001600160a01b038616608083015283151560c083015260e08083528a51908301528951919283929083019160a08401916101008501918d019080838360005b83811015610290578181015183820152602001610278565b50505050905090810190601f1680156102bd5780820380516001836020036101000a031916815260200191505b5084810383528951815289516020918201918b019080838360005b838110156102f05781810151838201526020016102d8565b50505050905090810190601f16801561031d5780820380516001836020036101000a031916815260200191505b50848103825286518152865160209182019188019080838360005b83811015610350578181015183820152602001610338565b50505050905090810190601f16801561037d5780820380516001836020036101000a031916815260200191505b509a505050505050505050505060405180910390f35b61014f611593565b610205611599565b61014f6115dd565b6103c8600480360360208110156103c157600080fd5b50356115e3565b60405180866001600160a01b03166001600160a01b0316815260200180602001806020018515151515815260200180602001848103845288818151815260200191508051906020019080838360005b8381101561042f578181015183820152602001610417565b50505050905090810190601f16801561045c5780820380516001836020036101000a031916815260200191505b50848103835287518152875160209182019189019080838360005b8381101561048f578181015183820152602001610477565b50505050905090810190601f1680156104bc5780820380516001836020036101000a031916815260200191505b50848103825285518152855160209182019187019080838360005b838110156104ef5781810151838201526020016104d7565b50505050905090810190601f16801561051c5780820380516001836020036101000a031916815260200191505b509850505050505050505060405180910390f35b6102056004803603606081101561054657600080fd5b810190602081018135600160201b81111561056057600080fd5b82018360208201111561057257600080fd5b803590602001918460018302840111600160201b8311171561059357600080fd5b91908080601f016020809104026020016040519081016040528093929190818152602001838380828437600092019190915250929550506001600160a01b038335169350505060200135611628565b61014f600480360360208110156105f857600080fd5b50356117a0565b61014f6117be565b61060f6117c4565b60405180876001600160a01b03166001600160a01b03168152602001806020018060200180602001868152602001858152602001848103845289818151815260200191508051906020019080838360005b83811015610678578181015183820152602001610660565b50505050905090810190601f1680156106a55780820380516001836020036101000a031916815260200191505b5084810383528851815288516020918201918a019080838360005b838110156106d85781810151838201526020016106c0565b50505050905090810190601f1680156107055780820380516001836020036101000a031916815260200191505b50848103825287518152875160209182019189019080838360005b83811015610738578181015183820152602001610720565b50505050905090810190601f1680156107655780820380516001836020036101000a031916815260200191505b50995050505050505050505060405180910390f35b6102056004803603608081101561079057600080fd5b6001600160a01b038235169190810190604081016020820135600160201b8111156107ba57600080fd5b8201836020820111156107cc57600080fd5b803590602001918460018302840111600160201b831117156107ed57600080fd5b91908080601f0160208091040260200160405190810160405280939291908181526020018383808284376000920191909152509295949360208101935035915050600160201b81111561083f57600080fd5b82018360208201111561085157600080fd5b803590602001918460018302840111600160201b8311171561087257600080fd5b91908080601f0160208091040260200160405190810160405280939291908181526020018383808284376000920191909152509295949360208101935035915050600160201b8111156108c457600080fd5b8201836020820111156108d657600080fd5b803590602001918460018302840111600160201b831117156108f757600080fd5b91908080601f0160208091040260200160405190810160405280939291908181526020018383808284376000920191909152509295506119be945050505050565b6102056004803603602081101561094e57600080fd5b810190602081018135600160201b81111561096857600080fd5b82018360208201111561097a57600080fd5b803590602001918460018302840111600160201b8311171561099b57600080fd5b91908080601f016020809104026020016040519081016040528093929190818152602001838380828437600092019190915250929550611aed945050505050565b6109f9600480360360208110156109f257600080fd5b5035611bdd565b6040518080602001886001600160a01b03166001600160a01b03168152602001806020018060200187151515158152602001806020018615151515815260200185810385528c818151815260200191508051906020019080838360005b83811015610a6e578181015183820152602001610a56565b50505050905090810190601f168015610a9b5780820380516001836020036101000a031916815260200191505b5085810384528a5181528a516020918201918c019080838360005b83811015610ace578181015183820152602001610ab6565b50505050905090810190601f168015610afb5780820380516001836020036101000a031916815260200191505b5085810383528951815289516020918201918b019080838360005b83811015610b2e578181015183820152602001610b16565b50505050905090810190601f168015610b5b5780820380516001836020036101000a031916815260200191505b50858103825287518152875160209182019189019080838360005b83811015610b8e578181015183820152602001610b76565b50505050905090810190601f168015610bbb5780820380516001836020036101000a031916815260200191505b509b50505050505050505050505060405180910390f35b61020560048036036040811015610be857600080fd5b810190602081018135600160201b811115610c0257600080fd5b820183602082011115610c1457600080fd5b803590602001918460018302840111600160201b83111715610c3557600080fd5b91908080601f0160208091040260200160405190810160405280939291908181526020018383808284376000920191909152509295949360208101935035915050600160201b811115610c8757600080fd5b820183602082011115610c9957600080fd5b803590602001918460018302840111600160201b83111715610cba57600080fd5b91908080601f016020809104026020016040519081016040528093929190818152602001838380828437600092019190915250929550611c14945050505050565b61020560048036036020811015610d1157600080fd5b50356001600160a01b0316611db2565b61020560048036036020811015610d3757600080fd5b810190602081018135600160201b811115610d5157600080fd5b820183602082011115610d6357600080fd5b803590602001918460018302840111600160201b83111715610d8457600080fd5b91908080601f016020809104026020016040519081016040528093929190818152602001838380828437600092019190915250929550611ded945050505050565b610205600480360360a0811015610ddb57600080fd5b810190602081018135600160201b811115610df557600080fd5b820183602082011115610e0757600080fd5b803590602001918460018302840111600160201b83111715610e2857600080fd5b91908080601f01602080910402602001604051908101604052809392919081815260200183838082843760009201919091525092956001600160a01b03853516959094909350604081019250602001359050600160201b811115610e8b57600080fd5b820183602082011115610e9d57600080fd5b803590602001918460018302840111600160201b83111715610ebe57600080fd5b91908080601f0160208091040260200160405190810160405280939291908181526020018383808284376000920191909152509295949360208101935035915050600160201b811115610f1057600080fd5b820183602082011115610f2257600080fd5b803590602001918460018302840111600160201b83111715610f4357600080fd5b91908080601f0160208091040260200160405190810160405280939291908181526020018383808284376000920191909152509295949360208101935035915050600160201b811115610f9557600080fd5b820183602082011115610fa757600080fd5b803590602001918460018302840111600160201b83111715610fc857600080fd5b91908080601f016020809104026020016040519081016040528093929190818152602001838380828437600092019190915250929550611ee2945050505050565b61020561205d565b6102056004803603606081101561102757600080fd5b810190602081018135600160201b81111561104157600080fd5b82018360208201111561105357600080fd5b803590602001918460018302840111600160201b8311171561107457600080fd5b91908080601f0160208091040260200160405190810160405280939291908181526020018383808284376000920191909152509295949360208101935035915050600160201b8111156110c657600080fd5b8201836020820111156110d857600080fd5b803590602001918460018302840111600160201b831117156110f957600080fd5b91908080601f0160208091040260200160405190810160405280939291908181526020018383808284376000920191909152509295949360208101935035915050600160201b81111561114b57600080fd5b82018360208201111561115d57600080fd5b803590602001918460018302840111600160201b8311171561117e57600080fd5b91908080601f01602080910402602001604051908101604052809392919081815260200183838082843760009201919091525092955061209e945050505050565b610205600480360360608110156111d557600080fd5b810190602081018135600160201b8111156111ef57600080fd5b82018360208201111561120157600080fd5b803590602001918460018302840111600160201b8311171561122257600080fd5b91908080601f01602080910402602001604051908101604052809392919081815260200183838082843760009201919091525092958435959094909350604081019250602001359050600160201b81111561127c57600080fd5b82018360208201111561128e57600080fd5b803590602001918460018302840111600160201b831117156112af57600080fd5b91908080601f0160208091040260200160405190810160405280939291908181526020018383808284376000920191909152509295506120f6945050505050565b61130d6004803603602081101561130657600080fd5b5035612382565b604080516001600160a01b0386166020808301919091529181018590528315156060820152821515608082015260a080825287519082015286519091829160c083019189019080838360005b83811015611371578181015183820152602001611359565b50505050905090810190601f16801561139e5780820380516001836020036101000a031916815260200191505b50965050505050505060405180910390f35b6008545b90565b6001546001600160a01b031633146113ce57600080fd5b6009816040518082805190602001908083835b602083106114005780518252601f1990920191602091820191016113e1565b6001836020036101000a038019825116818451168082178552505050505050905001915050908152602001604051809103902060030160019054906101000a900460ff16156009826040518082805190602001908083835b602083106114775780518252601f199092019160209182019101611458565b6001836020036101000a038019825116818451168082178552505050505050905001915050908152602001604051809103902060030160016101000a81548160ff02191690831515021790555050565b6060600060606000806060600061157c600889815481106114e457fe5b600091825260209182902001805460408051601f60026000196101006001871615020190941693909304928301859004850281018501909152818152928301828280156115725780601f1061154757610100808354040283529160200191611572565b820191906000526020600020905b81548152906001019060200180831161155557829003601f168201915b5050505050612432565b959e949d50929b5090995097509550909350915050565b600a5490565b336000908152600b60205260409020600101546001600160a01b03166115be57600080fd5b336000908152600b60205260409020600401805460ff19166001179055565b600e5490565b600060608060006060611616600e87815481106115fc57fe5b6000918252602090912001546001600160a01b03166128f3565b939a9299509097509550909350915050565b6001546001600160a01b0316331461163f57600080fd5b611647612ff9565b8381526001600160a01b038316602080830191909152604080830184905260006060840152600160808401525185518392600992889290918291908401908083835b602083106116a85780518252601f199092019160209182019101611689565b51815160209384036101000a60001901801990921691161790529201948552506040519384900381019093208451805191946116e994508593500190613027565b50602082810151600183810180546001600160a01b0319166001600160a01b03909316929092179091556040840151600284015560608401516003909301805460809095015160ff199095169315159390931761ff0019166101009415159490940293909317909155600a805492830180825560009190915286519092611798927fc65a7bb8d6351c1cf70c95a316cc6a92839c986682d98bc35f958f4883f9d2a89091019190880190613027565b505050505050565b600481815481106117ad57fe5b600091825260209091200154905081565b600c5490565b60006060806060600080600160009054906101000a90046001600160a01b03166006600260036000600554848054600181600116156101000203166002900480601f0160208091040260200160405190810160405280929190818152602001828054600181600116156101000203166002900480156118845780601f1061185957610100808354040283529160200191611884565b820191906000526020600020905b81548152906001019060200180831161186757829003601f168201915b5050875460408051602060026001851615610100026000190190941693909304601f8101849004840282018401909252818152959a50899450925084019050828280156119125780601f106118e757610100808354040283529160200191611912565b820191906000526020600020905b8154815290600101906020018083116118f557829003601f168201915b5050865460408051602060026001851615610100026000190190941693909304601f8101849004840282018401909252818152959950889450925084019050828280156119a05780601f10611975576101008083540402835291602001916119a0565b820191906000526020600020905b81548152906001019060200180831161198357829003601f168201915b50505050509250819150955095509550955095509550909192939495565b6001546001600160a01b031633146119d557600080fd5b6119dd6130a5565b6001600160a01b038581168083526020808401878152604080860188905260006060870181905260808701889052938452600d8352909220845181546001600160a01b031916941693909317835590518051849392611a43926001850192910190613027565b5060408201518051611a5f916002840191602090910190613027565b50606082015160038201805460ff191691151591909117905560808201518051611a93916004840191602090910190613027565b5050600e80546001810182556000919091527fbb7b4a454dc3493923482f07822329ed19e8244eff582cc204f8554c3620c3fd0180546001600160a01b0319166001600160a01b0397909716969096179095555050505050565b6009816040518082805190602001908083835b60208310611b1f5780518252601f199092019160209182019101611b00565b51815160209384036101000a60001901801990921691161790529201948552506040519384900301909220600101546001600160a01b031633149150611b66905057600080fd5b60016009826040518082805190602001908083835b60208310611b9a5780518252601f199092019160209182019101611b7b565b51815160209384036101000a60001901801990921691161790529201948552506040519384900301909220600301805460ff191693151593909317909255505050565b6060600060608060006060600061157c600c8981548110611bfa57fe5b6000918252602090912001546001600160a01b0316612af0565b6001546001600160a01b03163314611c2b57600080fd5b611c336130df565b8281526040808201839052600060208084018290526060840191909152600160c0840152905184518392600792879290918291908401908083835b60208310611c8d5780518252601f199092019160209182019101611c6e565b51815160209384036101000a6000190180199092169116179052920194855250604051938490038101909320845180519194611cce94508593500190613027565b50602082810151600183015560408301518051611cf19260028501920190613027565b50606082015160038201805460808501516001600160a01b031661010002610100600160a81b031993151560ff19909216919091179290921691909117905560a08201518051611d4b916004840191602090910190613027565b5060c091909101516005909101805460ff191691151591909117905560088054600181018083556000929092528451611dab917ff3f7a9fe364faab93b216da50a3214154f22a0a2b415b23a84c8169e8b636ee301906020870190613027565b5050505050565b6001546001600160a01b03163314611dc957600080fd5b6001600160a01b03166000908152600b60205260409020600601805460ff19169055565b6001546001600160a01b03163314611e0457600080fd5b6007816040518082805190602001908083835b60208310611e365780518252601f199092019160209182019101611e17565b51815160209384036101000a6000190180199092169116179052920194855250604051938490038101842060050154855160ff909116159460079450869350918291908401908083835b60208310611e9f5780518252601f199092019160209182019101611e80565b51815160209384036101000a60001901801990921691161790529201948552506040519384900301909220600501805460ff191693151593909317909255505050565b6001546001600160a01b03163314611ef957600080fd5b611f01613129565b8581526001600160a01b0385166020808301829052604080840187905260608401869052600060808501819052600160c086015260a08501869052928352600b8252909120825180518493611f5a928492910190613027565b506020828101516001830180546001600160a01b0319166001600160a01b0390921691909117905560408301518051611f999260028501920190613027565b5060608201518051611fb5916003840191602090910190613027565b50608082015160048201805460ff191691151591909117905560a08201518051611fe9916005840191602090910190613027565b5060c091909101516006909101805460ff19169115159190911790555050600c80546001810182556000919091527fdf6966c971051c3d54ec59162606531493a51404a002842f56009d7e5cf4a8c70180546001600160a01b0319166001600160a01b039490941693909317909255505050565b336000908152600d60205260409020546001600160a01b031661207f57600080fd5b336000908152600d60205260409020600301805460ff19166001179055565b6001546001600160a01b031633146120b557600080fd5b82516120c8906006906020860190613027565b5081516120dc906002906020850190613027565b5080516120f0906003906020840190613027565b50505050565b6007836040518082805190602001908083835b602083106121285780518252601f199092019160209182019101612109565b51815160209384036101000a600019018019909216911617905292019485525060405193849003019092206005015460ff169150612167905057600080fd5b816007846040518082805190602001908083835b6020831061219a5780518252601f19909201916020918201910161217b565b51815160209384036101000a600019018019909216911617905292019485525060405193849003810184206001908101959095556004805480870182556000919091527f8a35acfbc15ff81a39ae7d344fd709f28e8600b4aa8c65c6b64bfe7fe36bd19b0187905560058054860190558751600794899450925082918401908083835b6020831061223c5780518252601f19909201916020918201910161221d565b51815160209384036101000a60001901801990921691161790529201948552506040519384900381018420600301805460ff191695151595909517909455505084513392600792879290918291908401908083835b602083106122b05780518252601f199092019160209182019101612291565b6001836020036101000a038019825116818451168082178552505050505050905001915050908152602001604051809103902060030160016101000a8154816001600160a01b0302191690836001600160a01b03160217905550806007846040518082805190602001908083835b6020831061233d5780518252601f19909201916020918201910161231e565b51815160209384036101000a600019018019909216911617905292019485525060405193849003810190932084516120f0956004909201949190910192509050613027565b6060600080600080611616600a878154811061239a57fe5b600091825260209182902001805460408051601f60026000196101006001871615020190941693909304928301859004850281018501909152818152928301828280156124285780601f106123fd57610100808354040283529160200191612428565b820191906000526020600020905b81548152906001019060200180831161240b57829003601f168201915b5050505050612d49565b606060006060600080606060006007886040518082805190602001908083835b602083106124715780518252601f199092019160209182019101612452565b51815160209384036101000a600019018019909216911617905292019485525060405193849003810184208c519094600794508d9350918291908401908083835b602083106124d15780518252601f1990920191602091820191016124b2565b51815160209384036101000a60001901801990921691161790529201948552506040519384900381018420600101548d519094600794508e9350918291908401908083835b602083106125355780518252601f199092019160209182019101612516565b6001836020036101000a038019825116818451168082178552505050505050905001915050908152602001604051809103902060020160078b6040518082805190602001908083835b6020831061259d5780518252601f19909201916020918201910161257e565b6001836020036101000a038019825116818451168082178552505050505050905001915050908152602001604051809103902060030160009054906101000a900460ff1660078c6040518082805190602001908083835b602083106126135780518252601f1990920191602091820191016125f4565b6001836020036101000a038019825116818451168082178552505050505050905001915050908152602001604051809103902060030160019054906101000a90046001600160a01b031660078d6040518082805190602001908083835b6020831061268f5780518252601f199092019160209182019101612670565b6001836020036101000a038019825116818451168082178552505050505050905001915050908152602001604051809103902060040160078e6040518082805190602001908083835b602083106126f75780518252601f1990920191602091820191016126d8565b518151600019602094850361010090810a82019283169219939093169190911790925294909201968752604080519788900382018820600501548e54601f600260018316159098029095011695909504928301829004820288018201905281875260ff9093169594508b93509184019050828280156127b75780601f1061278c576101008083540402835291602001916127b7565b820191906000526020600020905b81548152906001019060200180831161279a57829003601f168201915b5050885460408051602060026001851615610100026000190190941693909304601f8101849004840282018401909252818152959c508a9450925084019050828280156128455780601f1061281a57610100808354040283529160200191612845565b820191906000526020600020905b81548152906001019060200180831161282857829003601f168201915b5050855460408051602060026001851615610100026000190190941693909304601f8101849004840282018401909252818152959a50879450925084019050828280156128d35780601f106128a8576101008083540402835291602001916128d3565b820191906000526020600020905b8154815290600101906020018083116128b657829003601f168201915b505050505091509650965096509650965096509650919395979092949650565b6001600160a01b038181166000908152600d60209081526040808320805460038201546001808401805486516002610100948316159490940260001901909116839004601f8101899004890282018901909752868152979860609889988b988a98979093169693959484019460ff16936004019286918301828280156129ba5780601f1061298f576101008083540402835291602001916129ba565b820191906000526020600020905b81548152906001019060200180831161299d57829003601f168201915b5050865460408051602060026001851615610100026000190190941693909304601f810184900484028201840190925281815295995088945092508401905082828015612a485780601f10612a1d57610100808354040283529160200191612a48565b820191906000526020600020905b815481529060010190602001808311612a2b57829003601f168201915b5050845460408051602060026001851615610100026000190190941693909304601f810184900484028201840190925281815295985086945092508401905082828015612ad65780601f10612aab57610100808354040283529160200191612ad6565b820191906000526020600020905b815481529060010190602001808311612ab957829003601f168201915b505050505090509450945094509450945091939590929450565b6001600160a01b038181166000908152600b6020908152604080832060018082015460048301546006840154845486516002610100968316159690960260001901909116859004601f81018990048902820189019097528681526060998a9889988b988a988a989197919094169593870194600388019460ff9283169460058a019493909116928991830182828015612bca5780601f10612b9f57610100808354040283529160200191612bca565b820191906000526020600020905b815481529060010190602001808311612bad57829003601f168201915b5050885460408051602060026001851615610100026000190190941693909304601f8101849004840282018401909252818152959c508a945092508401905082828015612c585780601f10612c2d57610100808354040283529160200191612c58565b820191906000526020600020905b815481529060010190602001808311612c3b57829003601f168201915b5050875460408051602060026001851615610100026000190190941693909304601f8101849004840282018401909252818152959a5089945092508401905082828015612ce65780601f10612cbb57610100808354040283529160200191612ce6565b820191906000526020600020905b815481529060010190602001808311612cc957829003601f168201915b5050855460408051602060026001851615610100026000190190941693909304601f8101849004840282018401909252818152959950879450925084019050828280156128d35780601f106128a8576101008083540402835291602001916128d3565b60606000806000806009866040518082805190602001908083835b60208310612d835780518252601f199092019160209182019101612d64565b51815160209384036101000a600019018019909216911617905292019485525060405193849003810184208a519094600994508b9350918291908401908083835b60208310612de35780518252601f199092019160209182019101612dc4565b51815160209384036101000a60001901801990921691161790529201948552506040519384900381018420600101548b516001600160a01b0390911694600994508c9350918291908401908083835b60208310612e515780518252601f199092019160209182019101612e32565b51815160209384036101000a60001901801990921691161790529201948552506040519384900381018420600201548c519094600994508d9350918291908401908083835b60208310612eb55780518252601f199092019160209182019101612e96565b51815160209384036101000a60001901801990921691161790529201948552506040519384900381018420600301548d5160ff90911694600994508e9350918291908401908083835b60208310612f1d5780518252601f199092019160209182019101612efe565b518151602093840361010090810a6000199081018019909416939092169290921790925292909401968752604080519788900382018820600301548c546002600182161586029097011695909504601f81018390048302890183019091528088529190930460ff16959450899350918401905082828015612fdf5780601f10612fb457610100808354040283529160200191612fdf565b820191906000526020600020905b815481529060010190602001808311612fc257829003601f168201915b505050505094509450945094509450945091939590929450565b6040805160a08101825260608082526000602083018190529282018390528101829052608081019190915290565b828054600181600116156101000203166002900490600052602060002090601f016020900481019282601f1061306857805160ff1916838001178555613095565b82800160010185558215613095579182015b8281111561309557825182559160200191906001019061307a565b506130a1929150613173565b5090565b6040518060a0016040528060006001600160a01b031681526020016060815260200160608152602001600015158152602001606081525090565b6040518060e0016040528060608152602001600081526020016060815260200160001515815260200160006001600160a01b03168152602001606081526020016000151581525090565b6040518060e001604052806060815260200160006001600160a01b031681526020016060815260200160608152602001600015158152602001606081526020016000151581525090565b6113b491905b808211156130a1576000815560010161317956fea265627a7a723158209a4bf0cf10787940be5a9c5d128c34bf57876d09f8f00f8e506cca9d9df37a9f64736f6c63430005100032",
  "source": "pragma solidity >=0.5.0 <0.9.0;\n\ncontract Employee {\n  address admin;\n  address employee_address;\n  string description;\n  string location;\n  uint256[] public overallEndorsement;\n  uint256 endorsecount;\n  string name;\n\n  constructor(\n    address _admin,\n    address _employee_address,\n    string memory _name,\n    string memory _description,\n    string memory _location\n  ) public {\n    admin = _admin;\n    name = _name;\n    employee_address = _employee_address;\n    description = _description;\n    location = _location;\n    endorsecount = 0;\n  }\n\n  modifier OnlyEmployee() {\n    require(msg.sender == employee_address);\n    _;\n  }\n\n  function getEmployeeInfo()\n    public\n    view\n    returns (\n      address,\n      string memory,\n      string memory,\n      string memory,\n      uint256,\n      uint256\n    )\n  {\n    return (employee_address, name, description, location, 0, endorsecount);\n  }\n\n  function editInfo(\n    string memory _name,\n    string memory _descrip,\n    string memory _location\n  ) public OnlyEmployee {\n    name = _name;\n    description = _descrip;\n    location = _location;\n  }\n\n  /*********************************************************SKILLS SECTION**********************************************************/\n\n  struct skillInfo {\n    string name;\n    uint256 overall_percentage;\n    string experience;\n    bool endorsed;\n    address endorser_address;\n    string review;\n    bool visible;\n  }\n\n  mapping(string => skillInfo) skillmap;\n  string[] skills;\n\n  function addSkill(string memory _name, string memory _experience)\n    public\n    OnlyEmployee\n  {\n    skillInfo memory employeeSkillSet;\n    employeeSkillSet.name = _name;\n    employeeSkillSet.experience = _experience;\n    employeeSkillSet.overall_percentage = 0;\n    employeeSkillSet.endorsed = false;\n    employeeSkillSet.visible = true;\n    skillmap[_name] = employeeSkillSet;\n    skills.push(_name);\n  }\n\n  function endorseSkill(\n    string memory _name,\n    uint256 _overall_percentage,\n    string memory _review\n  ) public {\n    require(skillmap[_name].visible);\n    skillmap[_name].overall_percentage = _overall_percentage;\n    overallEndorsement.push(_overall_percentage);\n    endorsecount = endorsecount + 1;\n    skillmap[_name].endorsed = true;\n    skillmap[_name].endorser_address = msg.sender;\n    skillmap[_name].review = _review;\n  }\n\n  function getSkillByName(string memory _name)\n    private\n    view\n    returns (\n      string memory,\n      uint256,\n      string memory,\n      bool,\n      address,\n      string memory,\n      bool\n    )\n  {\n    return (\n      skillmap[_name].name,\n      skillmap[_name].overall_percentage,\n      skillmap[_name].experience,\n      skillmap[_name].endorsed,\n      skillmap[_name].endorser_address,\n      skillmap[_name].review,\n      skillmap[_name].visible\n    );\n  }\n\n  function getSkillCount() public view returns (uint256) {\n    return skills.length;\n  }\n\n  function getSkillByIndex(uint256 _index)\n    public\n    view\n    returns (\n      string memory,\n      uint256,\n      string memory,\n      bool,\n      address,\n      string memory,\n      bool\n    )\n  {\n    return getSkillByName(skills[_index]);\n  }\n\n  function deleteSkill(string memory _name) public OnlyEmployee {\n    skillmap[_name].visible = !skillmap[_name].visible;\n  }\n\n  /*********************************************************CERTIFICATION SECTION**********************************************************/\n\n  struct certificationInfo {\n    string name;\n    address organization;\n    uint256 score;\n    bool endorsed;\n    bool visible;\n  }\n\n  mapping(string => certificationInfo) certificationmap;\n  string[] certifications;\n\n  function addCertification(\n    string memory _name,\n    address _organization,\n    uint256 _score\n  ) public OnlyEmployee {\n    certificationInfo memory newcertificationInfo;\n    newcertificationInfo.name = _name;\n    newcertificationInfo.organization = _organization;\n    newcertificationInfo.score = _score;\n    newcertificationInfo.endorsed = false;\n    newcertificationInfo.visible = true;\n    certificationmap[_name] = newcertificationInfo;\n    certifications.push(_name);\n  }\n\n  function endorseCertification(string memory _name) public {\n    require(msg.sender == certificationmap[_name].organization);\n    certificationmap[_name].endorsed = true;\n  }\n\n  function getCertificationByName(string memory _name)\n    private\n    view\n    returns (\n      string memory,\n      address,\n      uint256,\n      bool,\n      bool\n    )\n  {\n    return (\n      certificationmap[_name].name,\n      certificationmap[_name].organization,\n      certificationmap[_name].score,\n      certificationmap[_name].endorsed,\n      certificationmap[_name].visible\n    );\n  }\n\n  function getCertificationCount() public view returns (uint256) {\n    return certifications.length;\n  }\n\n  function getCertificationByIndex(uint256 _index)\n    public\n    view\n    returns (\n      string memory,\n      address,\n      uint256,\n      bool,\n      bool\n    )\n  {\n    return getCertificationByName(certifications[_index]);\n  }\n\n  function deleteCertification(string memory _name) public OnlyEmployee {\n    certificationmap[_name].visible = !certificationmap[_name].visible;\n  }\n\n  /********************************************************************Work Experience Section********************************************************************/\n\n  struct workexpInfo {\n    string role;\n    address organization;\n    string startdate;\n    string enddate;\n    bool endorsed;\n    string description;\n    bool visible;\n  }\n\n  mapping(address => workexpInfo) workexpmap;\n  address[] workexps;\n\n  function addWorkExp(\n    string memory _role,\n    address _organization,\n    string memory _startdate,\n    string memory _enddate,\n    string memory _description\n  ) public OnlyEmployee {\n    workexpInfo memory newworkexp;\n    newworkexp.role = _role;\n    newworkexp.organization = _organization;\n    newworkexp.startdate = _startdate;\n    newworkexp.enddate = _enddate;\n    newworkexp.endorsed = false;\n    newworkexp.visible = true;\n    newworkexp.description = _description;\n    workexpmap[_organization] = newworkexp;\n    workexps.push(_organization);\n  }\n\n  function endorseWorkExp() public {\n    require(workexpmap[msg.sender].organization != address(0x0));\n    workexpmap[msg.sender].endorsed = true;\n  }\n\n  function getWorkExpByAddress(address _organization)\n    private\n    view\n    returns (\n      string memory,\n      address,\n      string memory,\n      string memory,\n      bool,\n      string memory,\n      bool\n    )\n  {\n    return (\n      workexpmap[_organization].role,\n      workexpmap[_organization].organization,\n      workexpmap[_organization].startdate,\n      workexpmap[_organization].enddate,\n      workexpmap[_organization].endorsed,\n      workexpmap[_organization].description,\n      workexpmap[_organization].visible\n    );\n  }\n\n  function getWorkExpCount() public view returns (uint256) {\n    return workexps.length;\n  }\n\n  function getWorkExpByIndex(uint256 _index)\n    public\n    view\n    returns (\n      string memory,\n      address,\n      string memory,\n      string memory,\n      bool,\n      string memory,\n      bool\n    )\n  {\n    return getWorkExpByAddress(workexps[_index]);\n  }\n\n  function deleteWorkExp(address org) public OnlyEmployee {\n    workexpmap[org].visible = false;\n  }\n\n  /********************************************************************Education Section********************************************************************/\n\n  struct educationInfo {\n    address institute;\n    string startdate;\n    string enddate;\n    bool endorsed;\n    string description;\n  }\n\n  mapping(address => educationInfo) educationmap;\n  address[] educations;\n\n  function addEducation(\n    address _institute,\n    string memory _startdate,\n    string memory _enddate,\n    string memory _description\n  ) public OnlyEmployee {\n    educationInfo memory newEducation;\n    newEducation.institute = _institute;\n    newEducation.startdate = _startdate;\n    newEducation.enddate = _enddate;\n    newEducation.endorsed = false;\n    newEducation.description = _description;\n    educationmap[_institute] = newEducation;\n    educations.push(_institute);\n  }\n\n  function endorseEducation() public {\n    require(educationmap[msg.sender].institute != address(0x0));\n    educationmap[msg.sender].endorsed = true;\n  }\n\n  function getEducationByAddress(address _institute)\n    private\n    view\n    returns (\n      address,\n      string memory,\n      string memory,\n      bool,\n      string memory\n    )\n  {\n    return (\n      educationmap[_institute].institute,\n      educationmap[_institute].startdate,\n      educationmap[_institute].enddate,\n      educationmap[_institute].endorsed,\n      educationmap[_institute].description\n    );\n  }\n\n  function getEducationCount() public view returns (uint256) {\n    return educations.length;\n  }\n\n  function getEducationByIndex(uint256 _index)\n    public\n    view\n    returns (\n      address,\n      string memory,\n      string memory,\n      bool,\n      string memory\n    )\n  {\n    return getEducationByAddress(educations[_index]);\n  }\n}\n",
  "sourcePath": "C:\\Users\\kabhi\\Desktop\\skill-verification\\Skill-Verification\\truffle\\contracts\\Employee.sol",
  "compiler": {
    "name": "solc",
    "version": "0.5.16+commit.9c3226ce.Emscripten.clang"
  },
  "schemaVersion": "3.4.10",
  "updatedAt": "2022-11-19T19:48:00.584Z",
  "devdoc": {
    "methods": {}
  },
  "userdoc": {
    "methods": {}
  }
}