{
  "contractName": "Skills",
  "abi": [
    {
      "constant": false,
      "inputs": [
        {
          "internalType": "string",
          "name": "_name",
          "type": "string"
        },
        {
          "internalType": "address",
          "name": "_employee",
          "type": "address"
        }
      ],
      "name": "addEmployeeToSkill",
      "outputs": [],
      "payable": false,
      "stateMutability": "nonpayable",
      "type": "function"
    },
    {
      "constant": true,
      "inputs": [],
      "name": "getSkillLength",
      "outputs": [
        {
          "internalType": "uint256",
          "name": "",
          "type": "uint256"
        }
      ],
      "payable": false,
      "stateMutability": "view",
      "type": "function"
    },
    {
      "constant": true,
      "inputs": [
        {
          "internalType": "uint256",
          "name": "index",
          "type": "uint256"
        }
      ],
      "name": "getSkillsByIndex",
      "outputs": [
        {
          "internalType": "string",
          "name": "",
          "type": "string"
        }
      ],
      "payable": false,
      "stateMutability": "view",
      "type": "function"
    },
    {
      "constant": true,
      "inputs": [
        {
          "internalType": "uint256",
          "name": "index",
          "type": "uint256"
        }
      ],
      "name": "getTotalEmployeeInSkillByIndex",
      "outputs": [
        {
          "internalType": "uint256",
          "name": "",
          "type": "uint256"
        }
      ],
      "payable": false,
      "stateMutability": "view",
      "type": "function"
    },
    {
      "constant": true,
      "inputs": [
        {
          "internalType": "string",
          "name": "_name",
          "type": "string"
        }
      ],
      "name": "getTotalEmployeeInSkillByName",
      "outputs": [
        {
          "internalType": "uint256",
          "name": "",
          "type": "uint256"
        }
      ],
      "payable": false,
      "stateMutability": "view",
      "type": "function"
    },
    {
      "constant": true,
      "inputs": [
        {
          "internalType": "uint256",
          "name": "skill_index",
          "type": "uint256"
        },
        {
          "internalType": "uint256",
          "name": "emp_index",
          "type": "uint256"
        }
      ],
      "name": "getEmployeeInSkillByIndex",
      "outputs": [
        {
          "internalType": "address",
          "name": "",
          "type": "address"
        }
      ],
      "payable": false,
      "stateMutability": "view",
      "type": "function"
    },
    {
      "constant": true,
      "inputs": [
        {
          "internalType": "string",
          "name": "_name",
          "type": "string"
        },
        {
          "internalType": "uint256",
          "name": "emp_index",
          "type": "uint256"
        }
      ],
      "name": "getEmployeeBySkillName",
      "outputs": [
        {
          "internalType": "address",
          "name": "",
          "type": "address"
        }
      ],
      "payable": false,
      "stateMutability": "view",
      "type": "function"
    }
  ],
  "bytecode": "0x608060405234801561001057600080fd5b5061085f806100206000396000f3fe608060405234801561001057600080fd5b506004361061007d5760003560e01c80638673de531161005b5780638673de531461016c578063bb50d772146101fe578063e518dc3c1461023d578063f4cee617146102e35761007d565b80632e2acc4c14610082578063359c410f146101355780633dc1a6bc14610164575b600080fd5b6101336004803603604081101561009857600080fd5b8101906020810181356401000000008111156100b357600080fd5b8201836020820111156100c557600080fd5b803590602001918460018302840111640100000000831117156100e757600080fd5b91908080601f016020809104026020016040519081016040528093929190818152602001838380828437600092019190915250929550505090356001600160a01b0316915061038b9050565b005b6101526004803603602081101561014b57600080fd5b50356104ce565b60408051918252519081900360200190f35b61015261055e565b6101896004803603602081101561018257600080fd5b5035610565565b6040805160208082528351818301528351919283929083019185019080838360005b838110156101c35781810151838201526020016101ab565b50505050905090810190601f1680156101f05780820380516001836020036101000a031916815260200191505b509250505060405180910390f35b6102216004803603604081101561021457600080fd5b508035906020013561060e565b604080516001600160a01b039092168252519081900360200190f35b6101526004803603602081101561025357600080fd5b81019060208101813564010000000081111561026e57600080fd5b82018360208201111561028057600080fd5b803590602001918460018302840111640100000000831117156102a257600080fd5b91908080601f0160208091040260200160405190810160405280939291908181526020018383808284376000920191909152509295506106bd945050505050565b610221600480360360408110156102f957600080fd5b81019060208101813564010000000081111561031457600080fd5b82018360208201111561032657600080fd5b8035906020019184600183028401116401000000008311171561034857600080fd5b91908080601f0160208091040260200160405190810160405280939291908181526020018383808284376000920191909152509295505091359250610724915050565b6000826040518082805190602001908083835b602083106103bd5780518252601f19909201916020918201910161039e565b51815160209384036101000a600019018019909216911617905292019485525060405193849003019092205415159150610439905057600180548082018083556000929092528351610436917fb10e2d527612073b26eecdfd717e6a320cf44b4afac2b0732d9fcbe2b7fa0cf601906020860190610792565b50505b6000826040518082805190602001908083835b6020831061046b5780518252601f19909201916020918201910161044c565b51815160209384036101000a60001901801990921691161790529201948552506040519384900381019093208054600181018255600091825293902090920180546001600160a01b0319166001600160a01b039490941693909317909255505050565b600080600183815481106104de57fe5b9060005260206000200160405180828054600181600116156101000203166002900480156105435780601f10610521576101008083540402835291820191610543565b820191906000526020600020905b81548152906001019060200180831161052f575b50509283525050604051908190036020019020549050919050565b6001545b90565b60606001828154811061057457fe5b600091825260209182902001805460408051601f60026000196101006001871615020190941693909304928301859004850281018501909152818152928301828280156106025780601f106105d757610100808354040283529160200191610602565b820191906000526020600020905b8154815290600101906020018083116105e557829003601f168201915b50505050509050919050565b6000806001848154811061061e57fe5b9060005260206000200160405180828054600181600116156101000203166002900480156106835780601f10610661576101008083540402835291820191610683565b820191906000526020600020905b81548152906001019060200180831161066f575b5050915050908152602001604051809103902082815481106106a157fe5b6000918252602090912001546001600160a01b03169392505050565b600080826040518082805190602001908083835b602083106106f05780518252601f1990920191602091820191016106d1565b51815160209384036101000a6000190180199092169116179052920194855250604051938490030190922054949350505050565b600080836040518082805190602001908083835b602083106107575780518252601f199092019160209182019101610738565b51815160209384036101000a60001901801990921691161790529201948552506040519384900301909220805490925084915081106106a157fe5b828054600181600116156101000203166002900490600052602060002090601f016020900481019282601f106107d357805160ff1916838001178555610800565b82800160010185558215610800579182015b828111156108005782518255916020019190600101906107e5565b5061080c929150610810565b5090565b61056291905b8082111561080c576000815560010161081656fea265627a7a72315820892be401fd2a7c8813725e0173efd28d560e5afdd15a19ee6253a36b99b6063164736f6c63430005100032",
  "source": "pragma solidity >=0.5.0 <0.9.0;\n\ncontract Skills {\n  mapping(string => address[]) skillmap;\n  string[] skill;\n\n  function addEmployeeToSkill(string memory _name, address _employee) public {\n    if (skillmap[_name].length == 0) {\n      skill.push(_name);\n    }\n    skillmap[_name].push(_employee);\n  }\n\n  function getSkillLength() public view returns (uint256) {\n    return skill.length;\n  }\n\n  function getSkillsByIndex(uint256 index) public view returns (string memory) {\n    return skill[index];\n  }\n\n  function getTotalEmployeeInSkillByIndex(uint256 index)\n    public\n    view\n    returns (uint256)\n  {\n    return skillmap[skill[index]].length;\n  }\n\n  function getTotalEmployeeInSkillByName(string memory _name)\n    public\n    view\n    returns (uint256)\n  {\n    return skillmap[_name].length;\n  }\n\n  function getEmployeeInSkillByIndex(uint256 skill_index, uint256 emp_index)\n    public\n    view\n    returns (address)\n  {\n    return skillmap[skill[skill_index]][emp_index];\n  }\n\n  function getEmployeeBySkillName(string memory _name, uint256 emp_index)\n    public\n    view\n    returns (address)\n  {\n    return skillmap[_name][emp_index];\n  }\n}\n",
  "sourcePath": "C:\\Users\\kabhi\\Desktop\\skill-verification\\Skill-Verification\\truffle\\contracts\\Skills.sol",
  "compiler": {
    "name": "solc",
    "version": "0.5.16+commit.9c3226ce.Emscripten.clang"
  },
  "schemaVersion": "3.4.10",
  "updatedAt": "2022-11-19T19:48:09.665Z",
  "networkType": "ethereum",
  "devdoc": {
    "methods": {}
  },
  "userdoc": {
    "methods": {}
  }
}